{
  "_format": "hh-sol-artifact-1",
  "contractName": "StakingERC20",
  "sourceName": "contracts/StakingERC20.sol",
  "abi": [
    {
      "inputs": [
        {
          "internalType": "contract IERC20",
          "name": "_stakingToken",
          "type": "address"
        }
      ],
      "stateMutability": "nonpayable",
      "type": "constructor"
    },
    {
      "inputs": [],
      "name": "ReentrancyGuardReentrantCall",
      "type": "error"
    },
    {
      "inputs": [],
      "name": "DaysInYears",
      "outputs": [
        {
          "internalType": "uint256",
          "name": "",
          "type": "uint256"
        }
      ],
      "stateMutability": "view",
      "type": "function"
    },
    {
      "inputs": [],
      "name": "Rate",
      "outputs": [
        {
          "internalType": "uint256",
          "name": "",
          "type": "uint256"
        }
      ],
      "stateMutability": "view",
      "type": "function"
    },
    {
      "inputs": [
        {
          "internalType": "address",
          "name": "_staker",
          "type": "address"
        }
      ],
      "name": "calculateRewards",
      "outputs": [
        {
          "internalType": "uint256",
          "name": "",
          "type": "uint256"
        }
      ],
      "stateMutability": "view",
      "type": "function"
    },
    {
      "inputs": [],
      "name": "contractTokenBalance",
      "outputs": [
        {
          "internalType": "uint256",
          "name": "",
          "type": "uint256"
        }
      ],
      "stateMutability": "view",
      "type": "function"
    },
    {
      "inputs": [],
      "name": "maxDuration",
      "outputs": [
        {
          "internalType": "uint256",
          "name": "",
          "type": "uint256"
        }
      ],
      "stateMutability": "view",
      "type": "function"
    },
    {
      "inputs": [
        {
          "internalType": "string",
          "name": "_name",
          "type": "string"
        },
        {
          "internalType": "uint256",
          "name": "_amount",
          "type": "uint256"
        }
      ],
      "name": "stakeTokens",
      "outputs": [],
      "stateMutability": "nonpayable",
      "type": "function"
    },
    {
      "inputs": [
        {
          "internalType": "address",
          "name": "",
          "type": "address"
        }
      ],
      "name": "stakers",
      "outputs": [
        {
          "internalType": "string",
          "name": "name",
          "type": "string"
        },
        {
          "internalType": "uint256",
          "name": "accountBalance",
          "type": "uint256"
        },
        {
          "internalType": "uint256",
          "name": "stakeTime",
          "type": "uint256"
        },
        {
          "internalType": "bool",
          "name": "isCreated",
          "type": "bool"
        }
      ],
      "stateMutability": "view",
      "type": "function"
    },
    {
      "inputs": [],
      "name": "stakingToken",
      "outputs": [
        {
          "internalType": "contract IERC20",
          "name": "",
          "type": "address"
        }
      ],
      "stateMutability": "view",
      "type": "function"
    },
    {
      "inputs": [],
      "name": "withdrawRewards",
      "outputs": [],
      "stateMutability": "nonpayable",
      "type": "function"
    }
  ],
  "bytecode": "0x608060405234801561001057600080fd5b5060405161147d38038061147d833981810160405281019061003291906100f6565b600160008190555080600160006101000a81548173ffffffffffffffffffffffffffffffffffffffff021916908373ffffffffffffffffffffffffffffffffffffffff16021790555050610123565b600080fd5b600073ffffffffffffffffffffffffffffffffffffffff82169050919050565b60006100b182610086565b9050919050565b60006100c3826100a6565b9050919050565b6100d3816100b8565b81146100de57600080fd5b50565b6000815190506100f0816100ca565b92915050565b60006020828403121561010c5761010b610081565b5b600061011a848285016100e1565b91505092915050565b61134b806101326000396000f3fe608060405234801561001057600080fd5b50600436106100935760003560e01c806372f702f31161006657806372f702f3146101205780637b4f54251461013e5780639168ae721461015c5780639e9aed621461018f578063c7b8981c146101ad57610093565b80631b8e94a11461009857806364ab8675146100b65780636db5c8fd146100e657806371d772ca14610104575b600080fd5b6100a06101b7565b6040516100ad919061084b565b60405180910390f35b6100d060048036038101906100cb91906108d8565b6101bc565b6040516100dd919061084b565b60405180910390f35b6100ee6102bd565b6040516100fb919061084b565b60405180910390f35b61011e60048036038101906101199190610a77565b6102c2565b005b6101286104d9565b6040516101359190610b32565b60405180910390f35b6101466104ff565b604051610153919061084b565b60405180910390f35b610176600480360381019061017191906108d8565b610505565b6040516101869493929190610be7565b60405180910390f35b6101976105ca565b6040516101a4919061084b565b60405180910390f35b6101b561066d565b005b600a81565b600080600260008473ffffffffffffffffffffffffffffffffffffffff1673ffffffffffffffffffffffffffffffffffffffff16815260200190815260200160002090508060030160009054906101000a900460ff16610251576040517f08c379a000000000000000000000000000000000000000000000000000000000815260040161024890610c7f565b60405180910390fd5b60008160020154426102639190610cce565b9050600082600101549050600060646201518061016d6102839190610d02565b61028d9190610d02565b600a838561029b9190610d02565b6102a59190610d02565b6102af9190610d73565b905080945050505050919050565b603c81565b6102ca6107e2565b600073ffffffffffffffffffffffffffffffffffffffff163373ffffffffffffffffffffffffffffffffffffffff1603610339576040517f08c379a000000000000000000000000000000000000000000000000000000000815260040161033090610df0565b60405180910390fd5b6000811161037c576040517f08c379a000000000000000000000000000000000000000000000000000000000815260040161037390610e5c565b60405180910390fd5b6000600260003373ffffffffffffffffffffffffffffffffffffffff1673ffffffffffffffffffffffffffffffffffffffff16815260200190815260200160002090508060030160009054906101000a900460ff1661040557828160000190816103e6919061107e565b5060018160030160006101000a81548160ff0219169083151502179055505b818160010160008282546104199190611150565b92505081905550428160020181905550600160009054906101000a900473ffffffffffffffffffffffffffffffffffffffff1673ffffffffffffffffffffffffffffffffffffffff166323b872dd3330856040518463ffffffff1660e01b815260040161048893929190611193565b6020604051808303816000875af11580156104a7573d6000803e3d6000fd5b505050506040513d601f19601f820116820180604052508101906104cb91906111f6565b50506104d5610828565b5050565b600160009054906101000a900473ffffffffffffffffffffffffffffffffffffffff1681565b61016d81565b600260205280600052604060002060009150905080600001805461052890610eab565b80601f016020809104026020016040519081016040528092919081815260200182805461055490610eab565b80156105a15780601f10610576576101008083540402835291602001916105a1565b820191906000526020600020905b81548152906001019060200180831161058457829003601f168201915b5050505050908060010154908060020154908060030160009054906101000a900460ff16905084565b6000600160009054906101000a900473ffffffffffffffffffffffffffffffffffffffff1673ffffffffffffffffffffffffffffffffffffffff166370a08231306040518263ffffffff1660e01b81526004016106279190611223565b602060405180830381865afa158015610644573d6000803e3d6000fd5b505050506040513d601f19601f820116820180604052508101906106689190611253565b905090565b6106756107e2565b6000600260003373ffffffffffffffffffffffffffffffffffffffff1673ffffffffffffffffffffffffffffffffffffffff168152602001908152602001600020905060008160010154116106ff576040517f08c379a00000000000000000000000000000000000000000000000000000000081526004016106f6906112cc565b60405180910390fd5b600061070a336101bc565b9050600081836001015461071e9190611150565b90506000836001018190555060008360020181905550600160009054906101000a900473ffffffffffffffffffffffffffffffffffffffff1673ffffffffffffffffffffffffffffffffffffffff1663a9059cbb33836040518363ffffffff1660e01b81526004016107919291906112ec565b6020604051808303816000875af11580156107b0573d6000803e3d6000fd5b505050506040513d601f19601f820116820180604052508101906107d491906111f6565b505050506107e0610828565b565b60026000540361081e576040517f3ee5aeb500000000000000000000000000000000000000000000000000000000815260040160405180910390fd5b6002600081905550565b6001600081905550565b6000819050919050565b61084581610832565b82525050565b6000602082019050610860600083018461083c565b92915050565b6000604051905090565b600080fd5b600080fd5b600073ffffffffffffffffffffffffffffffffffffffff82169050919050565b60006108a58261087a565b9050919050565b6108b58161089a565b81146108c057600080fd5b50565b6000813590506108d2816108ac565b92915050565b6000602082840312156108ee576108ed610870565b5b60006108fc848285016108c3565b91505092915050565b600080fd5b600080fd5b6000601f19601f8301169050919050565b7f4e487b7100000000000000000000000000000000000000000000000000000000600052604160045260246000fd5b6109588261090f565b810181811067ffffffffffffffff8211171561097757610976610920565b5b80604052505050565b600061098a610866565b9050610996828261094f565b919050565b600067ffffffffffffffff8211156109b6576109b5610920565b5b6109bf8261090f565b9050602081019050919050565b82818337600083830152505050565b60006109ee6109e98461099b565b610980565b905082815260208101848484011115610a0a57610a0961090a565b5b610a158482856109cc565b509392505050565b600082601f830112610a3257610a31610905565b5b8135610a428482602086016109db565b91505092915050565b610a5481610832565b8114610a5f57600080fd5b50565b600081359050610a7181610a4b565b92915050565b60008060408385031215610a8e57610a8d610870565b5b600083013567ffffffffffffffff811115610aac57610aab610875565b5b610ab885828601610a1d565b9250506020610ac985828601610a62565b9150509250929050565b6000819050919050565b6000610af8610af3610aee8461087a565b610ad3565b61087a565b9050919050565b6000610b0a82610add565b9050919050565b6000610b1c82610aff565b9050919050565b610b2c81610b11565b82525050565b6000602082019050610b476000830184610b23565b92915050565b600081519050919050565b600082825260208201905092915050565b60005b83811015610b87578082015181840152602081019050610b6c565b60008484015250505050565b6000610b9e82610b4d565b610ba88185610b58565b9350610bb8818560208601610b69565b610bc18161090f565b840191505092915050565b60008115159050919050565b610be181610bcc565b82525050565b60006080820190508181036000830152610c018187610b93565b9050610c10602083018661083c565b610c1d604083018561083c565b610c2a6060830184610bd8565b95945050505050565b7f5374616b657220646f6573206e6f742065786973740000000000000000000000600082015250565b6000610c69601583610b58565b9150610c7482610c33565b602082019050919050565b60006020820190508181036000830152610c9881610c5c565b9050919050565b7f4e487b7100000000000000000000000000000000000000000000000000000000600052601160045260246000fd5b6000610cd982610832565b9150610ce483610832565b9250828203905081811115610cfc57610cfb610c9f565b5b92915050565b6000610d0d82610832565b9150610d1883610832565b9250828202610d2681610832565b91508282048414831517610d3d57610d3c610c9f565b5b5092915050565b7f4e487b7100000000000000000000000000000000000000000000000000000000600052601260045260246000fd5b6000610d7e82610832565b9150610d8983610832565b925082610d9957610d98610d44565b5b828204905092915050565b7f41646472657373207a65726f2064657465637465640000000000000000000000600082015250565b6000610dda601583610b58565b9150610de582610da4565b602082019050919050565b60006020820190508181036000830152610e0981610dcd565b9050919050565b7f43616e6e6f74207374616b65203020746f6b656e730000000000000000000000600082015250565b6000610e46601583610b58565b9150610e5182610e10565b602082019050919050565b60006020820190508181036000830152610e7581610e39565b9050919050565b7f4e487b7100000000000000000000000000000000000000000000000000000000600052602260045260246000fd5b60006002820490506001821680610ec357607f821691505b602082108103610ed657610ed5610e7c565b5b50919050565b60008190508160005260206000209050919050565b60006020601f8301049050919050565b600082821b905092915050565b600060088302610f3e7fffffffffffffffffffffffffffffffffffffffffffffffffffffffffffffffff82610f01565b610f488683610f01565b95508019841693508086168417925050509392505050565b6000610f7b610f76610f7184610832565b610ad3565b610832565b9050919050565b6000819050919050565b610f9583610f60565b610fa9610fa182610f82565b848454610f0e565b825550505050565b600090565b610fbe610fb1565b610fc9818484610f8c565b505050565b5b81811015610fed57610fe2600082610fb6565b600181019050610fcf565b5050565b601f8211156110325761100381610edc565b61100c84610ef1565b8101602085101561101b578190505b61102f61102785610ef1565b830182610fce565b50505b505050565b600082821c905092915050565b600061105560001984600802611037565b1980831691505092915050565b600061106e8383611044565b9150826002028217905092915050565b61108782610b4d565b67ffffffffffffffff8111156110a05761109f610920565b5b6110aa8254610eab565b6110b5828285610ff1565b600060209050601f8311600181146110e857600084156110d6578287015190505b6110e08582611062565b865550611148565b601f1984166110f686610edc565b60005b8281101561111e578489015182556001820191506020850194506020810190506110f9565b8683101561113b5784890151611137601f891682611044565b8355505b6001600288020188555050505b505050505050565b600061115b82610832565b915061116683610832565b925082820190508082111561117e5761117d610c9f565b5b92915050565b61118d8161089a565b82525050565b60006060820190506111a86000830186611184565b6111b56020830185611184565b6111c2604083018461083c565b949350505050565b6111d381610bcc565b81146111de57600080fd5b50565b6000815190506111f0816111ca565b92915050565b60006020828403121561120c5761120b610870565b5b600061121a848285016111e1565b91505092915050565b60006020820190506112386000830184611184565b92915050565b60008151905061124d81610a4b565b92915050565b60006020828403121561126957611268610870565b5b60006112778482850161123e565b91505092915050565b7f4e6f20746f6b656e73207374616b656400000000000000000000000000000000600082015250565b60006112b6601083610b58565b91506112c182611280565b602082019050919050565b600060208201905081810360008301526112e5816112a9565b9050919050565b60006040820190506113016000830185611184565b61130e602083018461083c565b939250505056fea2646970667358221220f84618c23839fa2e3b7d0bf47d33a4f4db67c46000b28cf9589d483ded4e259a64736f6c634300081b0033",
  "linkReferences": {},
  "deployedLinkReferences": {}
}